{
  "contractName": "BetApp",
  "abi": [
    {
      "inputs": [],
      "payable": false,
      "stateMutability": "nonpayable",
      "type": "constructor"
    },
    {
      "constant": true,
      "inputs": [],
      "name": "betNumber",
      "outputs": [
        {
          "internalType": "uint256",
          "name": "",
          "type": "uint256"
        }
      ],
      "payable": false,
      "stateMutability": "view",
      "type": "function"
    },
    {
      "constant": true,
      "inputs": [],
      "name": "minBet",
      "outputs": [
        {
          "internalType": "uint256",
          "name": "",
          "type": "uint256"
        }
      ],
      "payable": false,
      "stateMutability": "view",
      "type": "function"
    },
    {
      "constant": true,
      "inputs": [],
      "name": "owner",
      "outputs": [
        {
          "internalType": "address",
          "name": "",
          "type": "address"
        }
      ],
      "payable": false,
      "stateMutability": "view",
      "type": "function"
    },
    {
      "constant": true,
      "inputs": [
        {
          "internalType": "address",
          "name": "",
          "type": "address"
        }
      ],
      "name": "playerInfo",
      "outputs": [
        {
          "internalType": "uint256",
          "name": "betAmount",
          "type": "uint256"
        },
        {
          "internalType": "uint256",
          "name": "teamSelected",
          "type": "uint256"
        }
      ],
      "payable": false,
      "stateMutability": "view",
      "type": "function"
    },
    {
      "constant": true,
      "inputs": [
        {
          "internalType": "uint256",
          "name": "",
          "type": "uint256"
        }
      ],
      "name": "players",
      "outputs": [
        {
          "internalType": "address payable",
          "name": "",
          "type": "address"
        }
      ],
      "payable": false,
      "stateMutability": "view",
      "type": "function"
    },
    {
      "constant": true,
      "inputs": [
        {
          "internalType": "address payable",
          "name": "_player",
          "type": "address"
        }
      ],
      "name": "checkPlayerExisted",
      "outputs": [
        {
          "internalType": "bool",
          "name": "",
          "type": "bool"
        }
      ],
      "payable": false,
      "stateMutability": "view",
      "type": "function"
    },
    {
      "constant": false,
      "inputs": [
        {
          "internalType": "uint256",
          "name": "_teamSelected",
          "type": "uint256"
        }
      ],
      "name": "bet",
      "outputs": [],
      "payable": true,
      "stateMutability": "payable",
      "type": "function"
    },
    {
      "constant": false,
      "inputs": [],
      "name": "distributePrize",
      "outputs": [
        {
          "internalType": "uint256",
          "name": "",
          "type": "uint256"
        }
      ],
      "payable": false,
      "stateMutability": "nonpayable",
      "type": "function"
    },
    {
      "constant": true,
      "inputs": [],
      "name": "teamOneAmount",
      "outputs": [
        {
          "internalType": "uint256",
          "name": "",
          "type": "uint256"
        }
      ],
      "payable": false,
      "stateMutability": "view",
      "type": "function"
    },
    {
      "constant": true,
      "inputs": [],
      "name": "teamTwoAmount",
      "outputs": [
        {
          "internalType": "uint256",
          "name": "",
          "type": "uint256"
        }
      ],
      "payable": false,
      "stateMutability": "view",
      "type": "function"
    }
  ],
  "bytecode": "0x608060405234801561001057600080fd5b5033600460006101000a81548173ffffffffffffffffffffffffffffffffffffffff021916908373ffffffffffffffffffffffffffffffffffffffff160217905550655af3107a4000600081905550610b168061006e6000396000f3fe6080604052600436106100915760003560e01c80638da5cb5b116100595780638da5cb5b146101b15780639619367d14610208578063dad3fdf214610233578063f71d96cb1461025e578063f81fd316146102d957610091565b80630659b4d6146100965780634b114691146100c15780635fa7e5511461012d5780637365870b1461015857806377b6e50414610186575b600080fd5b3480156100a257600080fd5b506100ab610342565b6040518082815260200191505060405180910390f35b3480156100cd57600080fd5b50610110600480360360208110156100e457600080fd5b81019080803573ffffffffffffffffffffffffffffffffffffffff16906020019092919050505061034c565b604051808381526020018281526020019250505060405180910390f35b34801561013957600080fd5b50610142610370565b6040518082815260200191505060405180910390f35b6101846004803603602081101561016e57600080fd5b810190808035906020019092919050505061037a565b005b34801561019257600080fd5b5061019b61060e565b6040518082815260200191505060405180910390f35b3480156101bd57600080fd5b506101c6610818565b604051808273ffffffffffffffffffffffffffffffffffffffff1673ffffffffffffffffffffffffffffffffffffffff16815260200191505060405180910390f35b34801561021457600080fd5b5061021d61083e565b6040518082815260200191505060405180910390f35b34801561023f57600080fd5b50610248610844565b6040518082815260200191505060405180910390f35b34801561026a57600080fd5b506102976004803603602081101561028157600080fd5b810190808035906020019092919050505061084a565b604051808273ffffffffffffffffffffffffffffffffffffffff1673ffffffffffffffffffffffffffffffffffffffff16815260200191505060405180910390f35b3480156102e557600080fd5b50610328600480360360208110156102fc57600080fd5b81019080803573ffffffffffffffffffffffffffffffffffffffff169060200190929190505050610886565b604051808215151515815260200191505060405180910390f35b6000600254905090565b60066020528060005260406000206000915090508060000154908060010154905082565b6000600154905090565b61038333610886565b156103f6576040517f08c379a000000000000000000000000000000000000000000000000000000000815260040180806020018281038252600e8152602001807f506c61796572204578697374656400000000000000000000000000000000000081525060200191505060405180910390fd5b600054341015610451576040517f08c379a0000000000000000000000000000000000000000000000000000000008152600401808060200182810382526022815260200180610ac06022913960400191505060405180910390fd5b60018114806104605750600281145b6104d2576040517f08c379a000000000000000000000000000000000000000000000000000000000815260040180806020018281038252601c8152602001807f5465616d2073656c6563746564206d7573742062652031206f7220320000000081525060200191505060405180910390fd5b34600660003373ffffffffffffffffffffffffffffffffffffffff1673ffffffffffffffffffffffffffffffffffffffff1681526020019081526020016000206000018190555080600660003373ffffffffffffffffffffffffffffffffffffffff1673ffffffffffffffffffffffffffffffffffffffff1681526020019081526020016000206001018190555060053390806001815401808255809150509060018203906000526020600020016000909192909190916101000a81548173ffffffffffffffffffffffffffffffffffffffff021916908373ffffffffffffffffffffffffffffffffffffffff1602179055505060018114156105ef576105e43460015461093c90919063ffffffff16565b60018190555061060b565b6106043460025461093c90919063ffffffff16565b6002819055505b50565b60008060009050600080905060008090506000610629610958565b90506001811415610643576001549250600254915061064e565b600254925060015491505b60008090505b6005805490508167ffffffffffffffff1610156107ef57600060058267ffffffffffffffff168154811061068457fe5b9060005260206000200160009054906101000a900473ffffffffffffffffffffffffffffffffffffffff16905082600660008373ffffffffffffffffffffffffffffffffffffffff1673ffffffffffffffffffffffffffffffffffffffff1681526020019081526020016000206001015414156107e15785806001019650506000600660008373ffffffffffffffffffffffffffffffffffffffff1673ffffffffffffffffffffffffffffffffffffffff16815260200190815260200160002060000154905060058367ffffffffffffffff168154811061076157fe5b9060005260206000200160009054906101000a900473ffffffffffffffffffffffffffffffffffffffff1673ffffffffffffffffffffffffffffffffffffffff166108fc87878402816107b057fe5b0483019081150290604051600060405180830381858888f193505050501580156107de573d6000803e3d6000fd5b50505b508080600101915050610654565b50600560006107fe9190610a79565b600092506000915061080e610a67565b8094505050505090565b600460009054906101000a900473ffffffffffffffffffffffffffffffffffffffff1681565b60005481565b60035481565b6005818154811061085757fe5b906000526020600020016000915054906101000a900473ffffffffffffffffffffffffffffffffffffffff1681565b600080600090505b6005805490508167ffffffffffffffff161015610931578273ffffffffffffffffffffffffffffffffffffffff1660058267ffffffffffffffff16815481106108d357fe5b9060005260206000200160009054906101000a900473ffffffffffffffffffffffffffffffffffffffff1673ffffffffffffffffffffffffffffffffffffffff161415610924576001915050610937565b808060010191505061088e565b50600090505b919050565b60008082840190508381101561094e57fe5b8091505092915050565b600080434233604051602001808273ffffffffffffffffffffffffffffffffffffffff1673ffffffffffffffffffffffffffffffffffffffff1660601b81526014019150506040516020818303038152906040528051906020012060001c816109bd57fe5b04454241604051602001808273ffffffffffffffffffffffffffffffffffffffff1673ffffffffffffffffffffffffffffffffffffffff1660601b81526014019150506040516020818303038152906040528051906020012060001c81610a2057fe5b0444420101010101604051602001808281526020019150506040516020818303038152906040528051906020012060001c9050600160028281610a5f57fe5b060191505090565b60006001819055506000600281905550565b5080546000825590600052602060002090810190610a979190610a9a565b50565b610abc91905b80821115610ab8576000816000905550600101610aa0565b5090565b9056fe4d696e696d756d2076616c7565206f662062657420697320302e3030303120455448a265627a7a72315820665a63d50449fc0d54a1fb2249bdde3493a50cbb0a4d0244e3e6f0d8085fd83164736f6c63430005100032",
  "source": "// SPDX-License-Identifier: MIT\r\npragma solidity >=0.5.0;\r\n\r\nimport \"./SafeMath.sol\";\r\n\r\ncontract BetApp {\r\n    using SafeMath for uint256;\r\n\r\n    uint256 public minBet;\r\n    uint256 private teamOneBet;\r\n    uint256 private teamTwoBet;\r\n    uint256 public betNumber;\r\n    \r\n    address public owner;\r\n    address payable[] public players;\r\n    \r\n    struct Player{\r\n        uint256 betAmount;\r\n        uint teamSelected;\r\n    }\r\n    \r\n    mapping(address => Player) public playerInfo;\r\n    mapping(address => uint256) private _balance;\r\n    mapping(uint256 => address) private _ownerOf;\r\n    mapping(uint256 => address) approvals;\r\n\r\n    constructor() public{\r\n        owner = msg.sender;\r\n        minBet = 100000000000000; //0.0001 ETH\r\n    }\r\n    \r\n    function checkPlayerExisted(address payable _player) public view returns(bool) {\r\n        for(uint64 i = 0; i < players.length; i++){\r\n            if(players[i] == _player) return true;\r\n        }\r\n        return false;\r\n    }\r\n    \r\n    modifier betCondition(){\r\n        require(!checkPlayerExisted(msg.sender), \"Player Existed\");\r\n        require(msg.value >= minBet, \"Minimum value of bet is 0.0001 ETH\");\r\n        _;\r\n    }\r\n    \r\n    function _generateRandomWinner() private view returns (uint256) {\r\n        uint256 seed = uint256(keccak256(abi.encodePacked(\r\n        block.timestamp + block.difficulty +\r\n        ((uint256(keccak256(abi.encodePacked(block.coinbase)))) / (block.timestamp)) +\r\n        block.gaslimit + \r\n        ((uint256(keccak256(abi.encodePacked(msg.sender)))) / (block.timestamp)) +\r\n        block.number\r\n    )));\r\n\r\n    return (seed%2+1);\r\n  }\r\n    \r\n    function bet(uint _teamSelected) public payable betCondition {\r\n        require((_teamSelected == 1 || _teamSelected == 2), \"Team selected must be 1 or 2\");\r\n        playerInfo[msg.sender].betAmount = msg.value;\r\n        playerInfo[msg.sender].teamSelected = _teamSelected;\r\n        \r\n        players.push(msg.sender);\r\n        \r\n        if(_teamSelected == 1) teamOneBet = teamOneBet.add(msg.value);\r\n        else teamTwoBet = teamTwoBet.add(msg.value);\r\n    }\r\n    \r\n    function distributePrize() public returns (uint256){\r\n        uint64 winnerCount = 0;\r\n        uint256 winnerBetAmount = 0;\r\n        uint256 loserBetAmount = 0;\r\n        \r\n        uint256 _winnerTeam = _generateRandomWinner();\r\n        \r\n        //Setting up which team is winner\r\n        if(_winnerTeam == 1){   //Team 1 is the winner\r\n            winnerBetAmount = teamOneBet;\r\n            loserBetAmount = teamTwoBet;\r\n        } else {    //Team 2\r\n            winnerBetAmount = teamTwoBet;\r\n            loserBetAmount = teamOneBet;\r\n        }\r\n        \r\n        //Transfer money\r\n        for(uint64 i = 0; i < players.length; i++){\r\n            address playerAddress = players[i];\r\n            \r\n            if(playerInfo[playerAddress].teamSelected == _winnerTeam){\r\n                winnerCount++;\r\n                uint256 bets = playerInfo[playerAddress].betAmount;\r\n                players[i].transfer(bets + bets*loserBetAmount/winnerBetAmount);\r\n            }\r\n        }\r\n        \r\n        //Reset state\r\n        delete players;\r\n        winnerBetAmount = 0;\r\n        loserBetAmount = 0;\r\n        resetBetAmount();\r\n        \r\n        return _winnerTeam;\r\n    }\r\n    \r\n    function teamOneAmount() public view returns(uint256) {\r\n        return teamOneBet;\r\n    }\r\n    \r\n    function teamTwoAmount() public view returns(uint256) {\r\n        return teamTwoBet;\r\n    }\r\n    \r\n    function resetBetAmount() private {\r\n        teamOneBet = 0;\r\n        teamTwoBet = 0;\r\n    }\r\n}",
  "sourcePath": "D:/Code/JS/betapp/contracts/BetApp.sol",
  "compiler": {
    "name": "solc",
    "version": "0.5.16+commit.9c3226ce.Emscripten.clang"
  },
  "schemaVersion": "3.2.3",
  "updatedAt": "2020-08-18T14:13:19.644Z",
  "networkType": "ethereum",
  "devdoc": {
    "methods": {}
  },
  "userdoc": {
    "methods": {}
  }
}